{
  "abi": [
    {
      "inputs": [
        {
          "components": [
            {
              "internalType": "address",
              "name": "execution",
              "type": "address"
            },
            {
              "internalType": "bytes",
              "name": "selector",
              "type": "bytes"
            }
          ],
          "internalType": "struct Pipe.PipeNode[]",
          "name": "_pipe",
          "type": "tuple[]"
        }
      ],
      "name": "createPipe",
      "outputs": [],
      "stateMutability": "nonpayable",
      "type": "function"
    },
    {
      "inputs": [
        {
          "internalType": "uint256",
          "name": "pipeId",
          "type": "uint256"
        }
      ],
      "name": "runPipe",
      "outputs": [],
      "stateMutability": "nonpayable",
      "type": "function"
    }
  ],
  "bytecode": {
    "object": "0x608060405234801561001057600080fd5b506104d9806100206000396000f3fe608060405234801561001057600080fd5b50600436106100365760003560e01c806318e2781d1461003b578063c86e57181461004e575b600080fd5b61004c61004936600461029e565b50565b005b61004c61005c36600461040b565b33600090815260208190526040812080548390811061007d5761007d610424565b90600052602060002001805480602002602001604051908101604052809291908181526020016000905b82821015610180576000848152602090819020604080518082019091526002850290910180546001600160a01b0316825260018101805492939192918401916100ef9061043a565b80601f016020809104026020016040519081016040528092919081815260200182805461011b9061043a565b80156101685780601f1061013d57610100808354040283529160200191610168565b820191906000526020600020905b81548152906001019060200180831161014b57829003601f168201915b505050505081525050815260200190600101906100a7565b50505050905060005b81518110156101bc576101b48282815181106101a7576101a7610424565b60200260200101516101c1565b600101610189565b505050565b60008082600001516001600160a01b031683602001516040516101e49190610474565b6000604051808303816000865af19150503d8060008114610221576040519150601f19603f3d011682016040523d82523d6000602084013e610226565b606091505b505050505050565b634e487b7160e01b600052604160045260246000fd5b6040805190810167ffffffffffffffff811182821017156102675761026761022e565b60405290565b604051601f8201601f1916810167ffffffffffffffff811182821017156102965761029661022e565b604052919050565b600060208083850312156102b157600080fd5b823567ffffffffffffffff808211156102c957600080fd5b818501915085601f8301126102dd57600080fd5b8135818111156102ef576102ef61022e565b8060051b6102fe85820161026d565b918252838101850191858101908984111561031857600080fd5b86860192505b838310156103fe578235858111156103365760008081fd5b86016040601f19828d03810182131561034f5760008081fd5b610357610244565b838b01356001600160a01b03811681146103715760008081fd5b815283830135898111156103855760008081fd5b8085019450508d603f85011261039b5760008081fd5b8a840135898111156103af576103af61022e565b6103bf8c84601f8401160161026d565b92508083528e848287010111156103d65760008081fd5b808486018d85013760009083018c0152808b019190915284525050918601919086019061031e565b9998505050505050505050565b60006020828403121561041d57600080fd5b5035919050565b634e487b7160e01b600052603260045260246000fd5b600181811c9082168061044e57607f821691505b60208210810361046e57634e487b7160e01b600052602260045260246000fd5b50919050565b6000825160005b81811015610495576020818601810151858301520161047b565b50600092019182525091905056fea26469706673582212207fc915edbf467e88f1d42085662cde150ca903cbd29e9ab272b68b504156122064736f6c63430008140033",
    "linkReferences": {}
  },
  "methodIdentifiers": {
    "createPipe((address,bytes)[])": "18e2781d",
    "runPipe(uint256)": "c86e5718"
  },
  "id": 18
}