{
  "abi": [
    {
      "inputs": [],
      "name": "count",
      "outputs": [],
      "stateMutability": "nonpayable",
      "type": "function"
    },
    {
      "inputs": [],
      "name": "counter",
      "outputs": [
        {
          "internalType": "uint256",
          "name": "",
          "type": "uint256"
        }
      ],
      "stateMutability": "view",
      "type": "function"
    },
    {
      "inputs": [],
      "name": "getCounter",
      "outputs": [
        {
          "internalType": "uint256",
          "name": "",
          "type": "uint256"
        }
      ],
      "stateMutability": "view",
      "type": "function"
    }
  ],
  "bytecode": {
    "object": "0x608060405234801561001057600080fd5b5060dd8061001f6000396000f3fe6080604052348015600f57600080fd5b5060043610603c5760003560e01c806306661abd14604157806361bc221a1460495780638ada066e146063575b600080fd5b6047606a565b005b605160005481565b60405190815260200160405180910390f35b6000546051565b6001600080828254607a91906081565b9091555050565b8082018082111560a157634e487b7160e01b600052601160045260246000fd5b9291505056fea2646970667358221220df281b0225fd62d0a6e4dde0f335e3287e932c9168e4ced7a64e0ce41066cb4664736f6c63430008140033",
    "linkReferences": {}
  },
  "methodIdentifiers": {
    "count()": "06661abd",
    "counter()": "61bc221a",
    "getCounter()": "8ada066e"
  },
  "id": 20
}