{
  "abi": [
    {
      "inputs": [],
      "name": "getLocked",
      "outputs": [
        {
          "internalType": "bool",
          "name": "",
          "type": "bool"
        }
      ],
      "stateMutability": "view",
      "type": "function"
    },
    {
      "inputs": [],
      "name": "locked",
      "outputs": [
        {
          "internalType": "bool",
          "name": "",
          "type": "bool"
        }
      ],
      "stateMutability": "view",
      "type": "function"
    },
    {
      "inputs": [],
      "name": "toggleLock",
      "outputs": [],
      "stateMutability": "nonpayable",
      "type": "function"
    }
  ],
  "bytecode": {
    "object": "0x608060405234801561001057600080fd5b5060b68061001f6000396000f3fe6080604052348015600f57600080fd5b5060043610603c5760003560e01c80632d49ffcd146041578063cf30901214605c578063ff9413d8146068575b600080fd5b60005460ff165b604051901515815260200160405180910390f35b60005460489060ff1681565b607e6000805460ff19811660ff90911615179055565b00fea2646970667358221220e016cec2baf687308f5434ebb67704b9c7baa97ae991cc27b56db6cf755c431564736f6c63430008140033",
    "linkReferences": {}
  },
  "methodIdentifiers": {
    "getLocked()": "2d49ffcd",
    "locked()": "cf309012",
    "toggleLock()": "ff9413d8"
  },
  "id": 20
}